{
  "_format": "hh-sol-artifact-1",
  "contractName": "EthicalAI",
  "sourceName": "backend/blockchain/contracts/EthicalAI.sol",
  "abi": [
    {
      "inputs": [],
      "stateMutability": "nonpayable",
      "type": "constructor"
    },
    {
      "anonymous": false,
      "inputs": [
        {
          "indexed": false,
          "internalType": "uint256",
          "name": "recordId",
          "type": "uint256"
        },
        {
          "indexed": false,
          "internalType": "string",
          "name": "summary",
          "type": "string"
        },
        {
          "indexed": false,
          "internalType": "string",
          "name": "hash",
          "type": "string"
        },
        {
          "indexed": false,
          "internalType": "uint256",
          "name": "timestamp",
          "type": "uint256"
        },
        {
          "indexed": false,
          "internalType": "string",
          "name": "metadata",
          "type": "string"
        }
      ],
      "name": "ComplianceRecordAdded",
      "type": "event"
    },
    {
      "inputs": [
        {
          "internalType": "string",
          "name": "_summary",
          "type": "string"
        },
        {
          "internalType": "string",
          "name": "_hash",
          "type": "string"
        },
        {
          "internalType": "string",
          "name": "_metadata",
          "type": "string"
        }
      ],
      "name": "addComplianceRecord",
      "outputs": [],
      "stateMutability": "nonpayable",
      "type": "function"
    },
    {
      "inputs": [
        {
          "internalType": "uint256",
          "name": "_recordId",
          "type": "uint256"
        }
      ],
      "name": "getComplianceRecord",
      "outputs": [
        {
          "internalType": "uint256",
          "name": "",
          "type": "uint256"
        },
        {
          "internalType": "string",
          "name": "",
          "type": "string"
        },
        {
          "internalType": "string",
          "name": "",
          "type": "string"
        },
        {
          "internalType": "uint256",
          "name": "",
          "type": "uint256"
        },
        {
          "internalType": "string",
          "name": "",
          "type": "string"
        }
      ],
      "stateMutability": "view",
      "type": "function"
    },
    {
      "inputs": [],
      "name": "getTotalRecords",
      "outputs": [
        {
          "internalType": "uint256",
          "name": "",
          "type": "uint256"
        }
      ],
      "stateMutability": "view",
      "type": "function"
    },
    {
      "inputs": [],
      "name": "owner",
      "outputs": [
        {
          "internalType": "address",
          "name": "",
          "type": "address"
        }
      ],
      "stateMutability": "view",
      "type": "function"
    },
    {
      "inputs": [
        {
          "internalType": "uint256",
          "name": "",
          "type": "uint256"
        }
      ],
      "name": "records",
      "outputs": [
        {
          "internalType": "uint256",
          "name": "id",
          "type": "uint256"
        },
        {
          "internalType": "string",
          "name": "summary",
          "type": "string"
        },
        {
          "internalType": "string",
          "name": "hash",
          "type": "string"
        },
        {
          "internalType": "uint256",
          "name": "timestamp",
          "type": "uint256"
        },
        {
          "internalType": "string",
          "name": "metadata",
          "type": "string"
        }
      ],
      "stateMutability": "view",
      "type": "function"
    }
  ],
  "bytecode": "0x6080604052348015600f57600080fd5b50600080546001600160a01b03191633179055610a0f806100316000396000f3fe608060405234801561001057600080fd5b50600436106100575760003560e01c80630aeacb5e1461005c578063344610671461007257806366d7084f146100965780638da5cb5b146100a9578063ce300838146100d4575b600080fd5b6001546040519081526020015b60405180910390f35b610085610080366004610692565b6100e9565b6040516100699594939291906106f1565b6100856100a4366004610692565b6102c3565b6000546100bc906001600160a01b031681565b6040516001600160a01b039091168152602001610069565b6100e76100e23660046107e7565b610510565b005b600181815481106100f957600080fd5b6000918252602090912060059091020180546001820180549193509061011e9061087b565b80601f016020809104026020016040519081016040528092919081815260200182805461014a9061087b565b80156101975780601f1061016c57610100808354040283529160200191610197565b820191906000526020600020905b81548152906001019060200180831161017a57829003601f168201915b5050505050908060020180546101ac9061087b565b80601f01602080910402602001604051908101604052809291908181526020018280546101d89061087b565b80156102255780601f106101fa57610100808354040283529160200191610225565b820191906000526020600020905b81548152906001019060200180831161020857829003601f168201915b5050505050908060030154908060040180546102409061087b565b80601f016020809104026020016040519081016040528092919081815260200182805461026c9061087b565b80156102b95780601f1061028e576101008083540402835291602001916102b9565b820191906000526020600020905b81548152906001019060200180831161029c57829003601f168201915b5050505050905085565b600060608060006060600180549050861061031d5760405162461bcd60e51b8152602060048201526015602482015274149958dbdc9908191bd95cc81b9bdd08195e1a5cdd605a1b60448201526064015b60405180910390fd5b600060018781548110610332576103326108b5565b90600052602060002090600502019050806000015481600101826002018360030154846004018380546103649061087b565b80601f01602080910402602001604051908101604052809291908181526020018280546103909061087b565b80156103dd5780601f106103b2576101008083540402835291602001916103dd565b820191906000526020600020905b8154815290600101906020018083116103c057829003601f168201915b505050505093508280546103f09061087b565b80601f016020809104026020016040519081016040528092919081815260200182805461041c9061087b565b80156104695780601f1061043e57610100808354040283529160200191610469565b820191906000526020600020905b81548152906001019060200180831161044c57829003601f168201915b5050505050925080805461047c9061087b565b80601f01602080910402602001604051908101604052809291908181526020018280546104a89061087b565b80156104f55780601f106104ca576101008083540402835291602001916104f5565b820191906000526020600020905b8154815290600101906020018083116104d857829003601f168201915b50505050509050955095509550955095505091939590929450565b6000546001600160a01b031633146105795760405162461bcd60e51b815260206004820152602660248201527f4f6e6c7920746865206f776e65722063616e20706572666f726d20746869732060448201526530b1ba34b7b760d11b6064820152608401610314565b600180546040805160a0810182528281526020810187815291810186905242606082018190526080820186905283850185556000949094528051600584027fb10e2d527612073b26eecdfd717e6a320cf44b4afac2b0732d9fcbe2b7fa0cf681019182559251939493919290917fb10e2d527612073b26eecdfd717e6a320cf44b4afac2b0732d9fcbe2b7fa0cf790910190610615908261091a565b506040820151600282019061062a908261091a565b506060820151600382015560808201516004820190610649908261091a565b5050507fa639a892580b26936e4dcdec95ba32cf73f2baed7c1c22dab1c7380d20e6977082868684876040516106839594939291906106f1565b60405180910390a15050505050565b6000602082840312156106a457600080fd5b5035919050565b6000815180845260005b818110156106d1576020818501810151868301820152016106b5565b506000602082860101526020601f19601f83011685010191505092915050565b85815260a06020820152600061070a60a08301876106ab565b828103604084015261071c81876106ab565b9050846060840152828103608084015261073681856106ab565b98975050505050505050565b634e487b7160e01b600052604160045260246000fd5b600082601f83011261076957600080fd5b813567ffffffffffffffff81111561078357610783610742565b604051601f8201601f19908116603f0116810167ffffffffffffffff811182821017156107b2576107b2610742565b6040528181528382016020018510156107ca57600080fd5b816020850160208301376000918101602001919091529392505050565b6000806000606084860312156107fc57600080fd5b833567ffffffffffffffff81111561081357600080fd5b61081f86828701610758565b935050602084013567ffffffffffffffff81111561083c57600080fd5b61084886828701610758565b925050604084013567ffffffffffffffff81111561086557600080fd5b61087186828701610758565b9150509250925092565b600181811c9082168061088f57607f821691505b6020821081036108af57634e487b7160e01b600052602260045260246000fd5b50919050565b634e487b7160e01b600052603260045260246000fd5b601f82111561091557806000526020600020601f840160051c810160208510156108f25750805b601f840160051c820191505b8181101561091257600081556001016108fe565b50505b505050565b815167ffffffffffffffff81111561093457610934610742565b61094881610942845461087b565b846108cb565b6020601f82116001811461097c57600083156109645750848201515b600019600385901b1c1916600184901b178455610912565b600084815260208120601f198516915b828110156109ac578785015182556020948501946001909201910161098c565b50848210156109ca5786840151600019600387901b60f8161c191681555b50505050600190811b0190555056fea2646970667358221220eb40a1aaf0e6658d855ebdcbb323186377e94f2a20aaa23dc99c202672a3416d64736f6c634300081c0033",
  "linkReferences": {},
  "deployedLinkReferences": {}
}